:10002E00120D5712156C12158F120006120C9B1220
:10003E00091D12128F12100B120F261213CC80E90B
:03000000020DF2FC
:100DF20078FFE4F6D8FD9000007F007E01E4F0A3C6
:0A0E0200DFFCDEFA758185020E4761
:0713AE00025A000001590082
:0915760075AB058FAC43AC80227B
:09157F0075AB0575AF04D2BA2268
:10001600E4AFADEF75F010A4FFAEF0E5AE540FFD02
:03002600EF4DFF9C
:0100290022B4
:030053000213385D
:10133800C0E0C0F0C0D075D000C005C006C007E549
:1013480059700A1200168E5A8F5B755901D007D052
:0A13580006D005D0D0D0F0D0E0326E
:1014E10075F75575F7AA75F75A75B627E4F59A2277
:0400060075B7552253
:0D153E0075F75575F7AA75F75AE4F5B62252
:03008B0002000E62
:04000E0075800032C7
:0A155800E5636005754512F54622B3
:10147D00E56360117540FF754115754258E56420AF
:06148D00E103E4F5642216
:10136200E4FF1214BD7540FF754115754258E563DF
:101372007005756304800BE56430E106E563600285
:06138200156375640222F0
:0F151100E563600A756402B222E4FF121405223A
:10141E004834210C000004050201BEA49486786AAB
:08142E005E000304000001024E
:0313B500014B1ECB
:100E8C00200B03020F25E54B6003020F25C20BACB0
:100E9C002FE54C70067D057E4880047D077EC8ECEE
:100EAC00C39E400AC223E4F547F54AF54D222023A0
:100EBC0068E4FBEBC39D5061E54C7008EB90141E8D
:100ECC0093FF8006EB90142893FFECC39F4047E5FB
:100EDC004C7008EB90142393FC8006EB90142F932A
:100EEC00FCE54D6C60038C4D22E5476004654D704C
:100EFC001F854D47E54D147005202402D225202571
:100F0C000B302415D223D225E4F54A22854D4A22F2
:090F1C00D223754AFF220B809AD2
:010F250022A9
:101245007F011214BD202432D224C204E563700349
:101255007563043012177540FF7541117542AFE58E
:10126500556004D211D20175640402152F7540FF33
:1012750075411575425875640222C21BE4F550F597
:0A12850051F552F554C224F564221D
:1014F1000000000101000100FF6464FFFF64FF00C0
:10106B00EF12050A108E01109302109803109C04C6
:10107B0010A10510A80610AD1510B21610B7190067
:10108B000010BA12124580271213628022C22080F0
:10109B00071210C38019D220120FA08012121163F5
:1010AB00800D121493800812151180031211FAD2BD
:0810BB0007E4F5307880F6220D
:100C9B00120E8C854A08E508B4FF05D20EE4F50860
:100CAB00E508700D853608E5086002D20FD21F806B
:100CBB0007E4F536D20DC21F300D0A300F07D20EE6
:100CCB00E4F508F536E508701F200E10E560600CA2
:100CDB00E55FD394A04005AF6012106BC20CE4F536
:100CEB0060C20EC20FC20D22202406E508640170FB
:100CFB005A850860200C34E5609014F19370033032
:100D0B001F0CAF6012106BD20EE4F5368017E56046
:100D1B0024FB60092403700812147D800312005613
:100D2B00D207E4F530D20C755FC822E5609014F958
:100D3B0093FFF46016302413E55FD39F500D755F5E
:0B0D4B00C8E5602414FF12106BD20EEC
:010D5600227A
:101436000012131415161718191A1B3C00404244C3
:0814460046484A4C4E50528CFE
:1011AF00E555600675450EF5462220103D30123A82
:1011BF00E562C3940B4008E4F5457546138021E5BD
:1011CF0062601D3013059014368005E5629014425D
:1011DF0093FF75F00A84F545EF75F00A8485F046A4
:0B11EF00301304753F4022753F0822BA
:10005600201103E4F561E5556010D211D2017564F3
:10006600047540FF7541117542AF3010097F0112CA
:100076001405756404223012097540FF7541117527
:0300860042AF2264
:10116300E5556005D211D2012230123F20103C75A3
:1011730040FF7541117542AFE56430E2200562E539
:1011830062D3940B4003756201E562C3940B50086C
:1011930020040512152F800512154BD204201104CB
:0C11A300D201D211E47880F675640422B9
:100FA0007540FF7541117542AFE5556006D211D20B
:100FB0000180543010077F01121405804A2020025E
:100FC000C21120111EE562700375620AC20430125C
:100FD0000BE56430E231C212E4F56422D21212153C
:100FE0002F80240562E562D3940B4003756201E50E
:100FF00062C3940B500820040512152F80051215AA
:0B1000004BD204E47880F675640422F3
:1011FA00056130121020100DE561B40108D211D238
:10120A000175640422E561D39401402EE4F561C2BC
:10121A0011B210C20420100FE56430E20F75620AA1
:10122A00D21212152F8005E4F562C2127540FF75BD
:0B123A0041117542AF7F011214052224
:1014930020101230120F7564041214D07540FF75BA
:0614A30041117542AF2269
:0613B800014F00014E0090
:1013EA00E5546016B40108754503E4F5468008E53E
:0B13FA005414F545754611753F202284
:1010C300E4FF1214BD7540FF7541137542EA201CFD
:1010D3003FE56420E504E5547033C21B0554E55431
:1010E300D39407400CE4F554F550F551F552F564EB
:1010F30022E554B4010875511EE4F5528008E55405
:1011030014F552E4F551E4F550F553D21B75642000
:0111130022B9
:10130700301B2D0553E553D394634024E4F553FF75
:1013170074502FF8E6700B0FBF03F5C224C21BF5FC
:10132700542216EF14600614700675513B75503B36
:011337002293
:1013CC00201218E5637014301C03301B0BC21BE495
:0E13DC00F550F551F552F554D21C22C21C22D8
:10150100010103060D1B81908884C30102030406B7
:0713BE0002380000013400B9
:03000B0002144E8E
:10144E00C0E0758CFF758A600539E5397002053884
:08145E00309402C28CD0E03290
:03001300020BD706
:0D0BD700C0E0C083C082C0D075D000C00750
:100BE400C3E5399414E53894005003020C88201AA4
:100BF4000BD21A753500753A00020C880535E53AB2
:100C040025E0F53AD3E539945AE5389400400FE5E8
:100C1400399496E53894005005433A018018D3E599
:100C2400399419E53894004048E539943CE5389402
:100C340000503E533AFEE535C39405500CE535901B
:100C4400150193653A603D8028E535640C7035FFE5
:100C5400EF90150793B53A1220180BEF90150C93EB
:100C6400F536D218D225C21A80070FEFC394054077
:100C7400DF301806753B00753C00753500753A0089
:0C0C8400C21A8008753800753900D28C47
:0B0C9000D007D0D0D082D083D0E0325B
:1012D40030181A053CE53C7002053BD39409E53B04
:1012E40094004009E4F53BF53CF536C21830940F00
:1012F4000534E534D394044009E4F534C21A22E4F5
:02130400F534BE
:0113060022C4
:07158800000A02050A000041
:0313C500012500FF
:10140500200609D203E47882F67885F6D206EF78CD
:09141500816003760222760922AF
:1014D00020020BD208E47884F6787FF6D200D2029C
:0114E00022E9
:1014BD00C200EF64026004C211C201EF6004C206F3
:0314CD00C2032235
:03002B0002053695
:10053600C0E0C0F0C083C082C0D075D000C000C08B
:0D05460001C002C003C004C005C006C0070C
:10055300C2C60525E525D3940950030206C07525B7
:10056300001212D4E5596069755900E5AC30E149D0
:10057300D20BE55AC4F854F0C8E55BC4540F48F5F0
:100583002FE4FF121576E54B6047E52FD394FA402D
:10059300147549000548E548D39409403475480962
:1005A300754C00802C7548000549E549D3940940F2
:1005B30020754909754C018018D209E55BAE5A785C
:1005C30002CEC313CE13D8F9F52C8E2B7F0212154E
:1005D3007630B022201D1FD2A8788306E6D3946319
:1005E300401F7600E558D394284007C21D75580074
:1005F300800FD21D800BC2A8C289755800788376FC
:1006030000E54360021543E54B6002154B052EE5FB
:100613002ED394634016752E00D20A30040E052D96
:10062300E52DD3943B4005752D00C20420141F30E3
:10063300151C052AE52AD394634019752A0005334E
:10064300E533D39407400D753300C2158006752A30
:100653000075330030901F30161C0529E529D3940B
:100663006340197529000532E532D39404400D75B2
:100673003200C2168006752900753200787E06E6C0
:10068300D3940440357600D205E55F6002155F30F0
:1006930006287882067982E7D31896401D087600EB
:1006A300788506E6D3940B40087600C206C2038021
:1006B30009200304D2038002C20312130720240C6F
:1006C300C291C287C297C295C285806F0526E5266F
:1006D300D3940A4048752600E5636027D2976401E6
:1006E300600D20220AD291D287D295D2858008C28A
:1006F30091C287C295C285E56390158893F531F55C
:1007030028801AC291C287C295C28530120D20106B
:100713000AD2977528018528318002C297E5316492
:100723000A600CE528600415288004C287C297304C
:0B0733000304D2978005300602C29735
:10073E00D007D006D005D004D003D002D001D0000F
:0B074E00D0D0D082D083D0F0D0E032B9
:100F2600300576C205301120787D06E6D394094057
:100F36001DE4F6788006E6D394084008E4F6C2017C
:100F4600C211800AB2018006C201E4787DF620252E
:100F560003300715200C120530E530D394C8400C39
:100F6600E4F530C207C2258003E4F53030022830AC
:100F76000014788406E6D39409401EE4F6787F06CA
:100F8600E6D39405400EE47884F6787FF6C202C272
:090F960000B21322B20822C208C5
:010F9F00222F
:1014A9006F033D3B537A7E237F7B775E6C1F7C7491
:0414B90000564C6726
:0A156200754510754610753F102204
:10100B00E543705B754302F508F509F50A121562A5
:10101B00300703202411E4F5647544807540FF7597
:10102B0041157542628020AA41A942120530200168
:10103B0013200810E5459014A993F508853F09E5A1
:10104B004693F50A75448A30250930240675096CD8
:0F105B0075448A85440B7B007A007908121114C2
:01106A002263
:0E1520007F05AE071FEE60060000000080F49D
:01152E00229A
:0A156C00D283121520D2920215203E
:02138800AD07AF
:10138A00C283121520E4FCC292ED30E004D29680AA
:10139A0002C296EDC313FD121520D2921215200C2B
:0313AA00BC08E498
:0113AD00221D
:101114001215207F02121388D2831215207F4012E9
:101124001388D2831215207FC2121388121520E46B
:10113400F50C12046EFF121388E4FF121388740175
:1011440029F9E43AFA050CE50CC3940340E4D2838C
:0F11540012152012046EFF121388D28302152089
:100D5700758E10E5A130E30653A1F71200061214B1
:100D6700E1538008D294E5D3545F4457F5D3E5D2D5
:100D770054A844A0F5D243D51053D4EF539030C2B2
:100D87008353D3F743D208E5D554384408F5D5E55E
:100D9700D454F744C7F5D4C295C2B0C2B153D5DF16
:100DA70043D420E5DB54FE4402F5DBE5DA54FD4489
:100DB70001F5DA75D90143A822758911D288758C96
:100DC700FF758A6075C8B175CDFA75CCCB75CBFA4E
:100DD70075CACB12157FE4FF121576D28AD2AA758F
:0B0DE70040FF754115754262D2AF223B
:1007590020090302091CC209C2AF7868E52C26F6F4
:1007690018E52B36F6D2AF1806E6C39405500302F6
:10077900091CE4F608E6FE08E6FF7C007D05120484
:10078900877865E625E02469F8A60608A607E478CF
:1007990067F608F6786506E6D39409500302091C42
:1007A900E4F6FFEF04FEEEC3940A5040EE25E02480
:1007B9006AF9EF25E02469F8E6FC08E6FDD397EC31
:1007C900199740258C158D16EE25E02469F8E6FC6D
:1007D90008E6FDEF25E02469F8A60408A605EE253C
:1007E900E02469F8A61508A6160E80BA0FBF09B34A
:1007F900E4F515F5167F01EF25E02469F8E6FC0814
:10080900E62516F516EC3515F5150FBF09E9E516B8
:10081900AE157803CEC313CE13D8F9F5168E158508
:100829001556F557C39401E5159400500DE4F514D8
:10083900F51375128075113F8010AC15AD16E412D1
:10084900039E8F148E138D128C11AB14AA13A91247
:10085900A811E4FFFE7D807C44120091E4FBFA7943
:10086900907841120186AB14AA13A912A811120299
:100879008F8F148E138D128C11E4FBFA794878420C
:1008890012028F120AD6E4FBFA799578431201868F
:100899007B007A6079797845120095A804A905AAA0
:1008A90006AB077F007E607D797C4512028FE4FBF1
:1008B900FA799578431201867B007A80798878C322
:1008C9001200958F148E138D128C118F1E8E1D8D13
:1008D9001C8C1BE4FFFEFDFCAB1EAA1DA91CA81B5A
:1008E90012032C500BE4F51EF51DF51CF51B802198
:1008F900E4FFFE7DDC7C42AB1EAA1DA91CA81B12CD
:10090900032C600D400BE4F51EF51D751CDC751BF1
:0309190042D226A1
:01091C0022B8
:0313C800015D06BE
:0F152F00D216D214D217755D03E4F55CF55E2277
:0D154B00C214C217E4F55CF55E755D062262
:10091D00120759301D0A302407C290C215C2162283
:10092D00302407301204E555600FC2B0C214C21650
:10093D00301503020AA1C29022E56290143693FC91
:10094D00E41203A38F108E0F8D0E8C0DE4FFFE7D30
:10095D00707C42AB10AA0FA90EA80D12032C400DEE
:10096D00E4F510F50F750E70750D428030E4FFFE45
:10097D007DA07C41AB10AA0FA90EA80D12032C600F
:10098D0002501AAF10AE0FAD0EAC0DE4FBFA79C0EC
:10099D00783F1200958F108E0F8D0E8C0DE4FFFE9B
:1009AD007D807C3FAB1EAA1DA91CA81B1200958F34
:1009BD000C8E0B8D0A8C09AB10AA0FA90EA80D1267
:1009CD00032C402E201407D216D214755D06301755
:1009DD001EC217E55C2403F508D3955D4011E55D56
:1009ED0024FDF508D39406500375080685085D02AD
:1009FD000A86E4FFFE7D807CBFAB1EAA1DA91CA844
:100A0D001B1200958F0C8E0B8D0A8C09AB10AA0F43
:100A1D00A90EA80D12032C6002501430141C2017BF
:100A2D0019C214E55DD394035010755D06800B302B
:100A3D0014052017058047755D0C300A41C20A0563
:100A4D005EE55ED3943B4036E4F55E055CE55C24E3
:100A5D0003F508C3955D4026D217D216D214E55C76
:100A6D00955D401AE55D2403F508C3946740037551
:100A7D00086785085DC214C217E4F55CF55E301495
:100A8D000A201602D2B0D290D21522C2B020150281
:040A9D00C290C2162B
:010AA1002232
:06158F00C21DE4F5582224
:030003000214667E
:10146600C0E0C0D0C2890558E558D39450400375F2
:07147600585AD0D0D0E0323B
:10128F0030263EE4FFFE7D707C42AB1EAA1DA91CDA
:10129F00A81B12032C4002D21E301D0475550322C9
:1012AF00301E0475550122D3E55794D3E5569403A8
:1012BF00500BC3E557942BE5569400500475550217
:0512CF0022E4F55522A8
:10008E0002040CE86480F8E933E83360110460F090
:10009E00ED33EC337009E8FCE9FDEAFEEBFF2204D8
:1000AE0060DED3EB9FEA9EE99DE8C2E78CF0C2F7D3
:1000BE0095F0400CE8CCF8E9CDF9EACEFAEBCFFB9F
:1000CE001203D785D0F05804700320D5B3E804701E
:1000DE00075002B2D502041692D5EC0460F7E4CCB8
:1000EE00C0E0C398F8603B94186008400DD0E0FB68
:1000FE000203EEE4FBFAC9FC8028E830E406E4C90A
:10010E00FBE4CAFCE830E305E4C9CACBFCE85407BB
:10011E006010F8C3E913F9EA13FAEB13FBEC13FCC6
:10012E00D8F130F52FC3E49CFCEF9BFFEE9AFEED69
:10013E0099FDD0E0FBEF4E4D4C701222DB03020412
:10014E0013EC2CFCEF33FFEE33FEED33FDED30E719
:10015E00EB0203EEEF2BFFEE3AFEED39FDD0E0FBA6
:10016E0050130BBB0003020416ED13FDEE13FEEF4E
:08017E0013FFEC13FC0203EE79
:10018600EC4D6011E8497017ED33EC3304600DE473
:10019600FCFFFEFD22E933E8330470F802040C127A
:1001A60003D758046009E4CC24815006285009027C
:1001B6000416284003020413C0E0EB4A7044B980D9
:1001C60006D0E0FB020402EF4E701CBD8008EBFF78
:1001D600EAFEE9FD80EBE98DF0A4FEE5F002026F90
:1001E600E9CDF9EAFEEBFFEF89F0A4FCE5F0CE8954
:1001F600F0A42EFFE435F0CD89F0A42DFEE435F011
:100206008067EF4E7005BD80D780C3EF8BF0A4AC3E
:10021600F0EE8BF0A42CFCE435F0F8EF8AF0A42C79
:10022600E5F038FCE433CB8DF0A42CFCE5F03BF88C
:10023600EE8AF0A42CFCE5F038F8E433CF89F0A47C
:100246002CFCE5F038CF3400CE89F0A42FFFE5F082
:100256003EFEE433C98DF0A42EFEE5F039CD8AF0DA
:10026600A42FFFE5F03EFEE43DFD33D0E0FB500752
:100276000BBB000F020416EC2CFCEF33FFEE33FE33
:06028600ED33FD0203EE62
:10028C00020416EC5D046005E85904700302040CCA
:10029C001203D7580460F6EC4860F2EC7004FDFED3
:1002AC00FF22C860DB2481C85009C3986002500645
:1002BC000204139850CAF582E9294B4A7005AB82A7
:1002CC0002040275F0007C1A7880C3EF9BEE9AED65
:1002DC0099400DC3EF9BFFEE9AFEED99FDE842F0BD
:1002EC00DC23ACF0D0E0FFD0E0FED0E0FDAB822010
:1002FC00E7101BEB60BAEC2CFCEF33FFEE33FEED9A
:10030C0033FD0203EEE803F830E705C0F075F000AA
:10031C00EF2FFFEE33FEED33FD40B830E7C280AA7D
:10032C0074F8CC6480CCC86480C8F582046043C384
:10033C00EB9FF5F0EA9E42F0E99D42F0E89C45F017
:10034C0060305018E5825FFFE582F42B5582FB503C
:10035C00210ABA001D09B90019088016E5825BFB59
:10036C00E582F42F5582FF50090EBE00050DBD002D
:10037C00010CC3EB9FF5F0EA9E42F0E99D42F0E8D8
:0D038C009C45F06007CC4820E701B3EC224F
:1003990075F020800E75F010800575F0087D007EDF
:1003A900007F003392D530D5031204DCEC334010C2
:1003B900EF33FFEE33FEED33FDEC33FCD5F0ED22E8
:0E03C900E5F0247EA2D513CC92E7CDCEFF2224
:100AA2003E9248DA3ECCCCCD3F2AAAAB40000000B1
:100AB2003F8000003F9837F03FB504F33FD744FC36
:100AC2003E3172173EB172173F0515913EDE5BD97A
:100AD200D21F8002C21FEDD2E7F8CD33EC3304708F
:100AE2000BBD800592D502041602040C40FBD31400
:100AF20060F2F5F07C3FEE7A00C39496C8948B4086
:100B0200230AC89469C8941A401A0AC89468C894F7
:100B12001F40110AC8945AC89425400805F07A006B
:100B2200CDC2E7CDC0F08C178D188E198F1AEA232B
:100B320023C0E024B2F582E4340AF5831204FA12E7
:100B42000095ECC0E0EDC0E0EEC0E0EFC0E01204C2
:100B5200EAA817A918AA19AB1A120091D0E0FBD083
:100B6200E0FAD0E0F9D0E0B2E7F812028F8C178DEC
:100B7200188E198F1A900AA27403120421A817A9B9
:100B820018AA19AB1A120186D0E0600F24BEF582B2
:100B9200E4340AF5831204FA1200958C178D188E2C
:100BA200198F1AD0E0C3947FFDE49400FC12039ED7
:100BB2007B187A727931783F120186A817A918AA90
:100BC20019AB1A120095301F0B7BD97A5B79DE784C
:050BD2003E1201862225
:1003D700E9D2E7C933E833F892D5EDD2E7CD33EC6C
:0703E70033FC5002B2D522E5
:1003EE00EC30E7100FBF000C0EBE00080DBD000470
:1003FE000BEB6014A2D5EB13FCED92E7FD2274FF1C
:10040E00FCFDFEFF22E480F8A2D574FF13FC7D8074
:03041E00E480EF88
:10042100C0E0EFFBEEFAEDF9ECF8120186D0E0F551
:10043100F0EFFBEEFAEDF9ECF81204EAA3A3A3A3A3
:10044100E8C0E0E9C0E0EAC0E0EBC0E0C0F01201C2
:10045100861204FAA3A3A3A3120095D0F0D0E0FB67
:0D046100D0E0FAD0E0F9D0E0F8D5F0D422D8
:100E0C0002002EE493A3F8E493A34003F68001F2CE
:100E1C0008DFF48029E493A3F85407240CC8C333E7
:100E2C00C4540F4420C8834004F456800146F6DFB6
:100E3C00E4800B01020408102040809013AEE47E85
:100E4C00019360BCA3FF543F30E509541FFEE493AB
:100E5C00A360010ECF54C025E060A840B8E493A372
:100E6C00FAE493A3F8E493A3C8C582C8CAC583CA9D
:100E7C00F0A3C8C582C8CAC583CADFE9DEE780BE55
:0113CB000021
:10046E00BB010689828A83E0225002E722BBFE028C
:09047E00E32289828A83E49322BF
:10048700BC000BBE0029EF8DF084FFADF022E4CC59
:10049700F875F008EF2FFFEE33FEEC33FCEE9DEC22
:1004A700984005FCEE9DFE0FD5F0E9E4CEFD22ED68
:1004B700F8F5F0EE8420D21CFEADF075F008EF2FB2
:1004C700FFED33FD4007985006D5F0F222C398FDA3
:0504D7000FD5F0EA2240
:0E04DC00C3E49FFFE49EFEE49DFDE49CFC2231
:1004EA00E493FC740193FD740293FE740393FF2258
:1004FA00E493F8740193F9740293FA740393FB2258
:10050A00D083D082F8E4937012740193700DA3A380
:10051A0093F8740193F5828883E473740293686094
:06052A00EFA3A3A380DF94
:060530008A838982E47356
:00000001FF
