:10002E00120F02121574121597120006120C761288
:10003E00091A1212A2121076120D321213FD80E955
:03000000020DCE20
:100DCE0078FFE4F6D8FD9000007F007E01E4F0A3EA
:0A0DDE00DFFCDEFA758187020E23A8
:0713C1000258000001570073
:09157E0075AB058FAC43AC802273
:0915870075AB0575AF04D2BA2260
:10001600E4AFADEF75F010A4FFAEF0E5AE540FFD02
:03002600EF4DFF9C
:0100290022B4
:0300530002134B4A
:10134B00C0E0C0F0C0D075D000C005C006C007E536
:10135B0057700A1200168E588F59755701D007D047
:0A136B0006D005D0D0D0F0D0E0325B
:1014FA0075F75575F7AA75F75A75B627E4F59A225E
:0400060075B7552253
:0D15390075F75575F7AA75F75AE4F5B62257
:03008B0002000E62
:04000E0075800032C7
:0A156000E5616005754312F54422B1
:10149600E5616011753EFF753F15754060E5622098
:0614A600E103E4F56222FF
:10137500E4FF1214D6753EFF753F15754060E561B3
:101385007005756104800BE56230E106E561600278
:06139500156175620222E1
:1013DF00715C4834210C0000040201050000BEA41A
:0E13EF009486786A5E5000020000040001053A
:0313C80001491EBA
:100E6800200D03020F01E5496003020F01C20DAC1A
:100E78002EE54A70067D077E7180047D087EC8ECE9
:100E8800C39E400AC223E4F545F548F54B222023CA
:100E980068E4FBEBC39D5061E54A7008EB9013DFF3
:100EA80093FF8006EB9013ED93FFECC39F4047E55B
:100EB8004A7008EB9013E693FC8006EB9013F593C9
:100EC800FCE54B6C60038C4B22E5456004654B7078
:100ED8001F854B45E54B147005202402D22520259B
:100EE8000B302415D223D225E4F54822854B48221D
:090EF800D2237548FF220B809AF9
:010F010022CD
:101258007F011214D6202432D224C205E56170031E
:10126800756104301417753EFF753F117540C2E56E
:10127800536004D213D202756204021546753EFF0C
:10128800753F1575406075620222C21CE4F54EF583
:0A1298004FF550F552C224F5622212
:10150A000000010101000100FF64FFFFFF64FF000A
:100F9800300707EF24FE60028068EF24EB604A24E4
:100FA800FC604B2418B406005047900FC075F0033E
:100FB800A4C58325F0C58373020FD2020FD7020F91
:100FC800DC020FE0020FE5020FEC12125880221229
:100FD8001375801DC22180071210D68014D22112E9
:100FE800100B800D12117680081214AC80031212B7
:100FF8000DD209E4F52F787EF6788276010876908E
:03100800C2002201
:100C7600120E68854808E508B4FF05D210E4F508A9
:100C8600E508700D853408E5086002D211D220808F
:100C960007E4F534D20FC220300F0A301107D21004
:100CA600E4F508F534E508701F201010E55E600CC9
:100CB600E55DD394A04005AF5E120F98C20EE4F531
:100CC6005EC210C211C20F22202406E5086401701C
:100CD6005A85085E200E34E55E90150A937003303F
:100CE600200CAF5E120F98D210E4F5348017E55E43
:100CF60024FB600924037008121496800312005620
:100D0600D209E4F52FD20E755DC822E55E90151264
:100D160093FFF46016302413E55DD39F500D755D87
:0B0D2600C8E55E2414FF120F98D210E5
:010D3100229F
:10144F000012131415161718191A1B3C00404244AA
:08145F0046484A4C4E50528CE5
:1011C200E553600675430EF5442220123D30143A71
:1011D200E560C3940B4008E4F5437544138021E5B0
:1011E20060601D30150590144F8005E56090145B1A
:1011F20093FF75F00A84F543EF75F00A8485F04495
:0B120200301504753D4022753D0822A8
:10005600201303E4F55FE5536010D213D2027562F4
:1000660004753EFF753F117540C23012097F0112BB
:10007600143675620422301409753EFF753F1175FA
:0300860040C22253
:10117600E5536005D213D2022230143F20123C758B
:101186003EFF753F117540C2E56230E2200560E51D
:1011960060D3940B4003756001E560C3940B50085F
:1011A6002005051215468005121553D20520130495
:0C11B600D202D213E4787EF675620422A7
:10100B00753EFF753F117540C2E5536006D213D292
:10101B000280543012077F01121436804A202102BD
:10102B00C21320131EE560700375600AC2053014ED
:10103B000BE56230E231C214E4F56222D2141215D0
:10104B004680240560E560D3940B4003756001E591
:10105B0060C3940B50082005051215468005121528
:0B106B0053D205E4787EF67562042283
:10120D00055F30141020120DE55FB40108D213D222
:10121D000275620422E55FD39401402EE4F55FC2AE
:10122D0013B212C20520120FE56230E20F75600A8B
:10123D00D2141215468005E4F560C214753EFF7593
:0B124D003F117540C27F0112143622D1
:1014AC0020121230140F7562041214E9753EFF7588
:0614BC003F117540C22241
:0613CB00014D00014C0081
:10141B00E5526016B40108754303E4F5448008E512
:0B142B005214F543754411753D20225A
:1010D600E4FF1214D6753EFF753F1475401B201DA4
:1010E6003FE56220E504E5527033C21C0552E55225
:1010F600D39407400CE4F552F54EF54FF550F562E2
:1011060022E552B40108754F1EE4F5508008E552F9
:1011160014F550E4F54FE4F54EF551D21C756220F6
:0111260022A6
:10131A00301C2D0551E551D394634024E4F551FF67
:10132A00744E2FF8E6700B0FBF03F5C224C21CF5EA
:10133A00522216EF146006147006754F3B754E3B29
:01134A002280
:1013FD00201418E5617014301D03301C0BC21CE461
:0E140D00F54EF54FF550F552D21D22C21D22AC
:10151A00010103060D1B81908884C301020304069E
:0713D10002360000013200AA
:03000B0002146775
:10146700C0E0758CFF758A600537E5377002053671
:08147700309402C28CD0E03277
:03001300020BB22B
:0D0BB200C0E0C083C082C0D075D000C00775
:100BBF00C3E5379414E53694005003020C632018F4
:100BCF000BD218753300753800020C630533E53806
:100BDF0025E0F538D3E537945AE5369400400FE514
:100BEF00379496E536940050054338018018D3E5C5
:100BFF00379419E53694004048E537943CE5369430
:100C0F0000503E5338FEE533C39405500CE5339046
:100C1F00151A936538603D8028E533640C7035FFF5
:100C2F00EF90152093B5381220160BEF90152593E2
:100C3F00F534D216D225C21880070FEFC3940540A2
:100C4F00DF301606753900753A00753300753800B8
:0C0C5F00C2188008753600753700D28C72
:0B0C6B00D007D0D0D082D083D0E03280
:1012E70030161A053AE53A70020539D39409E539FB
:1012F70094004009E4F539F53AF534C21630940FF5
:101307000532E532D394044009E4F532C21822E4E9
:02131700F532AD
:0113190022B1
:07159000000A02050A000039
:0313D800012500EC
:10143600200809D204E47884F67887F6D208EF7893
:091446008160037602227609227E
:1014E90020030BD20AE47886F6787DF6D201D2037E
:0114F90022D0
:1014D600C201EF64026004C213C202EF6004C208D4
:0314E600C204221B
:03002B00020510BB
:10051000C0E0C0F0C083C082C0D075D000C000C0B1
:0D05200001C002C003C004C005C006C00732
:10052D00C2C60525E525D3940950030206A07525FD
:10053D00001212E7E5576069755700E5AC30E149E7
:10054D00D20DE558C4F854F0C8E559C4540F48F518
:10055D002EE4FF12157EE5496047E52ED394FA404F
:10056D00147547000546E546D39409403475460990
:10057D00754A00802C7546000547E547D394094020
:10058D0020754709754A018018D20BE559AE587888
:10059D0002CEC313CE13D8F9F52B8E2A7F02121576
:1005AD007E30B022201E1FD2A8788506E6D3946334
:1005BD00401F7600E556D394284007C21E7556009D
:1005CD00800FD21E800BC2A8C28975560078857621
:1005DD0000E54160021541E54960021549052DE52B
:1005ED002DD394634016752D00D20C30050E052CBD
:1005FD00E52CD3943B4005752C00C20520191F3006
:10060D001A1C0529E529D394634019752900053174
:10061D00E531D3943B400D753100C21A8006752922
:10062D0000753100787C06E6D3940440377600D20D
:10063D0006E55D6002155D30082A7884067984E749
:10064D00D3788196401E78847600788706E6D39419
:10065D000B40087600C208C2048009200404D204AD
:10066D008002C20420B117788076001806E6D39474
:10067D0009401D7600D207202416D2248012787FDF
:10068D0076000806E6D3940940067600C207C2003C
:10069D0012131A20240FC291C295C287C285C2813E
:1006AD00C29702073B0526E526D3940A405C7526C2
:1006BD0000E5617003300034D287D297E561B40153
:1006CD000330000AD291D295D285D2818008C29191
:1006DD00C295C285C281300006901594E48005E56F
:1006ED006190159093F530853028801EC291C2958A
:1006FD00C285C28130140F20120CD287D297752873
:10070D00018528308004C287C297E530640A600EE7
:10071D00E528600415288006C295C287C29730046B
:0E072D0006D287D2978007300804C287C29791
:10073B00D007D006D005D004D003D002D001D00012
:0B074B00D0D0D082D083D0F0D0E032BC
:100D3200200603020DCDC206301320787B06E6D3CF
:100D42009409401DE4F6787E06E6D394084008E450
:100D5200F6C202C213800AB2028006C202E4787BA3
:100D6200F6202503300915200E12052FE52FD39406
:100D7200C8400CE4F52FC209C2258003E4F52F30E8
:100D8200032A300114788606E6D394094020E4F65B
:100D9200787D06E6D39405400FE47886F6787DF6F2
:100DA200C203C201B2158006B20A8002C20A30072B
:100DB2001A7883E61846600708E616187001167856
:0B0DC20083E618467005200002D200F6
:010DCD002203
:1014C2006F033D3B537A7E237F7B775E6C1F7C7478
:0414D20000564C670D
:0A156A00754310754410753D102202
:10107600E541705B754102F508F509F50A12156A36
:10108600300903202411E4F562754280753EFF7530
:101096003F1575406A8020AA3FA94012050A200222
:1010A60013200A10E5439014C293F508853D09E51F
:1010B6004493F50A75428A30250930240675091EBF
:0F10C60075428A85420B7B007A00790812112748
:0110D50022F8
:0E152A007F05AE071FEE60060000000080F493
:011538002290
:0A157400D28312152AD29202152A22
:02139B00AD079C
:10139D00C28312152AE4FCC292ED30E004D296808D
:1013AD0002C296EDC313FD12152AD29212152A0C04
:0313BD00BC08E485
:0113C000220A
:1011270012152A7F0212139BD28312152A7F4012AF
:10113700139BD28312152A7FC212139B12152AE41E
:10114700F50C12046EFF12139BE4FF12139B74013C
:1011570029F9E43AFA050CE50CC3940340E4D28379
:0F11670012152A12046EFF12139BD28302152A4F
:100F0200E4F58EE5A130E30653A1F71200061214B0
:100F1200FA538008D294E5D3545D4455F5D3E5D213
:100F220054AA44A2F5D243D51053D4EF539010C221
:100F32008353D3F743D208E5D554384408F5D5E5B1
:100F4200D454F744C7F5D4C295C2B0D2B153D5DF59
:100F520043D42053DBFCE5DA54FD4401F5DA75D9BC
:100F62000143A822758911D288758CFF758A607534
:100F7200C8B175CDFA75CCCB75CBFA75CACB121543
:100F8200877F0212157ED28AD2AA753EFF753F155F
:060F920075406AD2AF2297
:10075600200B03020919C20BC2AF7866E52B26F6F9
:1007660018E52A36F6D2AF1806E6C39405500302FA
:100776000919E4F608E6FE08E6FF7C007D0512048A
:10078600877863E625E02467F8A60608A607E478D6
:1007960065F608F6786306E6D3940950030209194C
:1007A600E4F6FFEF04FEEEC3940A5040EE25E02483
:1007B60068F9EF25E02467F8E6FC08E6FDD397EC38
:1007C600199740258C158D16EE25E02467F8E6FC72
:1007D60008E6FDEF25E02467F8A60408A605EE2541
:1007E600E02467F8A61508A6160E80BA0FBF09B34F
:1007F600E4F515F5167F01EF25E02467F8E6FC0819
:10080600E62516F516EC3515F5150FBF09E9E516BB
:10081600AE157803CEC313CE13D8F9F5168E15850B
:100826001554F555C39401E5159400500DE4F514DF
:10083600F51375128075113F8010AC15AD16E412D4
:10084600039E8F148E138D128C11AB14AA13A9124A
:10085600A811E4FFFE7D807C44120091E4FBFA7946
:10086600907841120186AB14AA13A912A81112029C
:100876008F8F148E138D128C11E4FBFA794878420F
:1008860012028F120AB1E4FBFA79957843120186B7
:100896007B007A6079797845120095A804A905AAA3
:1008A60006AB077F007E607D797C4512028FE4FBF4
:1008B600FA799578431201867B007A80798878C325
:1008C6001200958F148E138D128C118F1E8E1D8D16
:1008D6001C8C1BE4FFFEFDFCAB1EAA1DA91CA81B5D
:1008E60012032C500BE4F51EF51DF51CF51B80219B
:1008F600E4FFFE7DDC7C42AB1EAA1DA91CA81B12D0
:10090600032C600D400BE4F51EF51D751CDC751BF4
:0309160042D226A4
:0109190022BB
:0313DB00015B06AD
:0D154600D219D21B755B03E4F55AF55C2247
:0D155300C219C21BE4F55AF55C755B062257
:10091A00120756301E08302405C290C21A2230240B
:10092A000A301407200704E553600DC2B0C219301B
:10093A001A03020A7CC29022E56090144F93FCE4E9
:10094A001203A38F108E0F8D0E8C0DE4FFFE7D70A7
:10095A007C42AB10AA0FA90EA80D12032C400DE47D
:10096A00F510F50F750E70750D42801AAF10AE0FA7
:10097A00AD0EAC0DE4FBFA796078401200958F1049
:10098A008E0F8D0E8C0DE4FFFEFD7C3FAB1EAA1D63
:10099A00A91CA81B1200958F0C8E0B8D0A8C09AB13
:1009AA0010AA0FA90EA80D12032C402C201905D24B
:1009BA0019755B06301B1EC21BE55A2403F508D3C2
:1009CA00955B4011E55B24FDF508D3940650037549
:1009DA00080685085B020A66E4FFFEFD7CBFAB1EC3
:1009EA00AA1DA91CA81B1200958F0C8E0B8D0A8CB0
:1009FA0009AB10AA0FA90EA80D12032C60025014FD
:100A0A0030191C201B19C219E55BD39403501075C9
:100A1A005B06800B301905201B058045755B0C3081
:100A2A000C3FC20C055CE55CD3943B4034E4F55CB6
:100A3A00055AE55A2403F508C3955B4024D21BD214
:100A4A0019E55A955B401AE55B2403F508C39467D8
:100A5A00400375086785085BC219C21BE4F55AF59D
:100A6A005C301907D2B0D290D21A22C2B0201A0230
:020A7A00C29028
:010A7C002257
:06159700C21EE4F556221D
:0300030002147F65
:10147F00C0E0C0D0C2890556E556D39450400375DD
:07148F00565AD0D0D0E03224
:1012A20030263EE4FFFE7D707C42AB1EAA1DA91CC7
:1012B200A81B12032C4002D21F301E0475530322B6
:1012C200301F0475530122D3E55594D3E55494039A
:1012D200500BC3E555942BE554940050047553020A
:0512E20022E4F5532297
:10008E0002040CE86480F8E933E83360110460F090
:10009E00ED33EC337009E8FCE9FDEAFEEBFF2204D8
:1000AE0060DED3EB9FEA9EE99DE8C2E78CF0C2F7D3
:1000BE0095F0400CE8CCF8E9CDF9EACEFAEBCFFB9F
:1000CE001203D785D0F05804700320D5B3E804701E
:1000DE00075002B2D502041692D5EC0460F7E4CCB8
:1000EE00C0E0C398F8603B94186008400DD0E0FB68
:1000FE000203EEE4FBFAC9FC8028E830E406E4C90A
:10010E00FBE4CAFCE830E305E4C9CACBFCE85407BB
:10011E006010F8C3E913F9EA13FAEB13FBEC13FCC6
:10012E00D8F130F52FC3E49CFCEF9BFFEE9AFEED69
:10013E0099FDD0E0FBEF4E4D4C701222DB03020412
:10014E0013EC2CFCEF33FFEE33FEED33FDED30E719
:10015E00EB0203EEEF2BFFEE3AFEED39FDD0E0FBA6
:10016E0050130BBB0003020416ED13FDEE13FEEF4E
:08017E0013FFEC13FC0203EE79
:10018600EC4D6011E8497017ED33EC3304600DE473
:10019600FCFFFEFD22E933E8330470F802040C127A
:1001A60003D758046009E4CC24815006285009027C
:1001B6000416284003020413C0E0EB4A7044B980D9
:1001C60006D0E0FB020402EF4E701CBD8008EBFF78
:1001D600EAFEE9FD80EBE98DF0A4FEE5F002026F90
:1001E600E9CDF9EAFEEBFFEF89F0A4FCE5F0CE8954
:1001F600F0A42EFFE435F0CD89F0A42DFEE435F011
:100206008067EF4E7005BD80D780C3EF8BF0A4AC3E
:10021600F0EE8BF0A42CFCE435F0F8EF8AF0A42C79
:10022600E5F038FCE433CB8DF0A42CFCE5F03BF88C
:10023600EE8AF0A42CFCE5F038F8E433CF89F0A47C
:100246002CFCE5F038CF3400CE89F0A42FFFE5F082
:100256003EFEE433C98DF0A42EFEE5F039CD8AF0DA
:10026600A42FFFE5F03EFEE43DFD33D0E0FB500752
:100276000BBB000F020416EC2CFCEF33FFEE33FE33
:06028600ED33FD0203EE62
:10028C00020416EC5D046005E85904700302040CCA
:10029C001203D7580460F6EC4860F2EC7004FDFED3
:1002AC00FF22C860DB2481C85009C3986002500645
:1002BC000204139850CAF582E9294B4A7005AB82A7
:1002CC0002040275F0007C1A7880C3EF9BEE9AED65
:1002DC0099400DC3EF9BFFEE9AFEED99FDE842F0BD
:1002EC00DC23ACF0D0E0FFD0E0FED0E0FDAB822010
:1002FC00E7101BEB60BAEC2CFCEF33FFEE33FEED9A
:10030C0033FD0203EEE803F830E705C0F075F000AA
:10031C00EF2FFFEE33FEED33FD40B830E7C280AA7D
:10032C0074F8CC6480CCC86480C8F582046043C384
:10033C00EB9FF5F0EA9E42F0E99D42F0E89C45F017
:10034C0060305018E5825FFFE582F42B5582FB503C
:10035C00210ABA001D09B90019088016E5825BFB59
:10036C00E582F42F5582FF50090EBE00050DBD002D
:10037C00010CC3EB9FF5F0EA9E42F0E99D42F0E8D8
:0D038C009C45F06007CC4820E701B3EC224F
:1003990075F020800E75F010800575F0087D007EDF
:1003A900007F003392D530D5031204DCEC334010C2
:1003B900EF33FFEE33FEED33FDEC33FCD5F0ED22E8
:0E03C900E5F0247EA2D513CC92E7CDCEFF2224
:100A7D003E9248DA3ECCCCCD3F2AAAAB40000000D6
:100A8D003F8000003F9837F03FB504F33FD744FC5B
:100A9D003E3172173EB172173F0515913EDE5BD99F
:100AAD00D2208002C220EDD2E7F8CD33EC330470B2
:100ABD000BBD800592D502041602040C40FBD31425
:100ACD0060F2F5F07C3FEE7A00C39496C8948B40AB
:100ADD00230AC89469C8941A401A0AC89468C8941D
:100AED001F40110AC8945AC89425400805F07A0091
:100AFD00CDC2E7CDC0F08C178D188E198F1AEA2351
:100B0D0023C0E0248DF582E4340AF5831204FA1231
:100B1D000095ECC0E0EDC0E0EEC0E0EFC0E01204E7
:100B2D00EAA817A918AA19AB1A120091D0E0FBD0A8
:100B3D00E0FAD0E0F9D0E0B2E7F812028F8C178D11
:100B4D00188E198F1A900A7D7403120421A817A903
:100B5D0018AA19AB1A120186D0E0600F2499F582FC
:100B6D00E4340AF5831204FA1200958C178D188E51
:100B7D00198F1AD0E0C3947FFDE49400FC12039EFC
:100B8D007B187A727931783F120186A817A918AAB5
:100B9D0019AB1A12009530200B7BD97A5B79DE7870
:050BAD003E120186224A
:1003D700E9D2E7C933E833F892D5EDD2E7CD33EC6C
:0703E70033FC5002B2D522E5
:1003EE00EC30E7100FBF000C0EBE00080DBD000470
:1003FE000BEB6014A2D5EB13FCED92E7FD2274FF1C
:10040E00FCFDFEFF22E480F8A2D574FF13FC7D8074
:03041E00E480EF88
:10042100C0E0EFFBEEFAEDF9ECF8120186D0E0F551
:10043100F0EFFBEEFAEDF9ECF81204EAA3A3A3A3A3
:10044100E8C0E0E9C0E0EAC0E0EBC0E0C0F01201C2
:10045100861204FAA3A3A3A3120095D0F0D0E0FB67
:0D046100D0E0FAD0E0F9D0E0F8D5F0D422D8
:100DE80002002EE493A3F8E493A34003F68001F2F3
:100DF80008DFF48029E493A3F85407240CC8C3330C
:100E0800C4540F4420C8834004F456800146F6DFDA
:100E1800E4800B01020408102040809013C1E47E96
:100E2800019360BCA3FF543F30E509541FFEE493CF
:100E3800A360010ECF54C025E060A840B8E493A396
:100E4800FAE493A3F8E493A3C8C582C8CAC583CAC1
:100E5800F0A3C8C582C8CAC583CADFE9DEE780BE79
:0113DE00000E
:10046E00BB010689828A83E0225002E722BBFE028C
:09047E00E32289828A83E49322BF
:10048700BC000BBE0029EF8DF084FFADF022E4CC59
:10049700F875F008EF2FFFEE33FEEC33FCEE9DEC22
:1004A700984005FCEE9DFE0FD5F0E9E4CEFD22ED68
:1004B700F8F5F0EE8420D21CFEADF075F008EF2FB2
:1004C700FFED33FD4007985006D5F0F222C398FDA3
:0504D7000FD5F0EA2240
:0E04DC00C3E49FFFE49EFEE49DFDE49CFC2231
:1004EA00E493FC740193FD740293FE740393FF2258
:1004FA00E493F8740193F9740293FA740393FB2258
:06050A008A838982E4737C
:00000001FF
