:10158C00120EB012175C121778120006120D3E12D2
:10159C0009AB1213EF12120D120FF912002E80E983
:07143400024A00000149001B
:0917660075AB058FAC43AC802289
:09176F0075AB0575AF04D2BA2276
:10166800E4AFADEF75F010A4FFAEF0E5AE540FFD9A
:03167800EF4DFF34
:01167B00224C
:0300530002153C57
:10153C00C0E0C0F0C0D075D000C005C006C007E543
:10154C0049700A1216688E4A8F4B754901D007D024
:0A155C0006D005D0D0D0F0D0E03268
:03000000020F5F8D
:100F5F0078FFE4F6D8FD9000007F007E01E4F0A357
:0A0F6F00DFFCDEFA75818A020FB480
:1016DB0075F75575F7AA75F75A75B627E4F59A227B
:0400060075B7552253
:0D001E0075F75575F7AA75F75AE4F5B62287
:03008B0002000E62
:04000E0075800032C7
:10143B00460001010103060D1B46000D81908884B7
:10144B00C3A0460007010206040507022A0000415B
:03145B000000008E
:03000B000215E0FB
:1015E000C0E0758CFF758A60052BE52B7002052A1B
:0815F000309402C28CD0E032FD
:03001300020C6577
:0D0C6500C0E0C083C082C0D075D000C007C1
:100C7200C3E52B9414E52A94005003020D2B202582
:100C82000BD225752700752D00020D2B0527E52DAA
:100C920025E0F52DD3E52B945AE52A9400400FE583
:100CA2002B9496E52A94005005432D018018D3E534
:100CB2002B9419E52A9400405CE52B943CE52A9498
:100CC200005052532DFEE527C3940550127401259E
:100CD20027F582E43400F583E0652D604C8036E52B
:100CE20027640C7044FF740D2FF582E43400F58301
:100CF200E0B52D1AE52C701274072FF582E434004A
:100D0200F583E0F528752C01D22FC22580070FEF5D
:100D1200C3940640D1E52C6006752E00752F007530
:100D22002700752D00C2258008752A00752B00D278
:010D32008C34
:0B0D3300D007D0D0D082D083D0E032B7
:10147100E52CB4011A052FE52F7002052ED394092E
:10148100E52E94004009E4F52EF52FF528F52C30D2
:101491009411900000E004F0E0D39404400AE4F0D9
:0814A100C22522E4900000F0D6
:0114A9002220
:03145E0001560133
:0F16FB00E556600A753812C374099556F5392201
:10162700E55660117533FF7534167535FBE55720A0
:06163700E103E4F5572277
:1014AA00E4FF1216A47533FF7534167535FBE5573C
:1014BA0020E104E55670170556E556D39408400610
:1014CA00E4F556F55722E556B408031216B77557D0
:0214DA000222EC
:0E1737006E5A4834210C00000705040602011A
:10114600301362C213AF1DEFC39471400AC22DE47F
:10115600F54CF54DF54E22202D4BE4FEEE9017375B
:1011660093FDEFC39D403AEE90173E93FF654E60A8
:10117600038F4E22E54C6004654E701F854E4CE58C
:101186004E147005202E02D22F202F0B302E16D291
:101196002DD22FE4F54D22854E4D22D22D754DFFD1
:0511A600220EBE07B798
:0111AB002221
:1011AC007F011216A4202E49D22EC20C201A0BE558
:1011BC00567007E5587003755601301A1220180F37
:1011CC007533FF753413753559755704021719E5C6
:1011DC0056600D7533FF7534167535FB7557022245
:1011EC00E558601C7533FF75341775350A75574013
:1011FC0022C226E4F53CF53DF53EF540C22EF557EE
:01120C0022BF
:1016EB000000010101010000FF64FFFFFFFF640028
:1010DE00EF24EB605224FB60532419B40700504FE9
:1010EE009010FC75F003A4C58325F0C5837302111F
:1010FE001102111602111B02111F021124021129D5
:10110E000211301211AC80271214AA8022C22B8039
:10111E000C12126D801912150D8014D22B12107331
:10112E00800D12130D800812163D80031213A4D2E7
:08113E000FE4F51E7885F6228E
:100D3E00121146854D08E508B4FF05D216E4F508F4
:100D4E00E508700D852808E5086002D217D22A80C2
:100D5E0007E4F528D215C22A30150A301707D21625
:100D6E00E4F508F528E508701F201610E553600C11
:100D7E00E552D394A04005AF531210DEC214E4F531
:100D8E0053C216C217C21522202E06E50864017042
:100D9E005A850853201434E5539016EB93700330A4
:100DAE002A0CAF531210DED216E4F5288017E55345
:100DBE0024FA6009240470081216278003120056C4
:100DCE00D20FE4F51ED2147552C822E5539016F3D5
:100DDE0093FFF46016302E13E552D39F500D7552CB
:0B0DEE00C8E5532414FF1210DED216DB
:010DF90022D7
:1015F8000012131415161718191A1B3C0040424400
:0816080046484A4C4E50528C3A
:10135900E545600675380EF5392220183D301A3AF0
:10136900E555C3940B4008E4F5387539138021E538
:1013790055601D301B059015F88005E5559016043C
:1013890093FF75F00A84F538EF75F00A8485F03912
:0B139900301B04753240227532082220
:10005600201903E4F554E5456010D219D209755705
:10006600047533FF7534137535593018097F01123D
:1000760015C775570422301A097533FF7534137581
:03008600355922C7
:10130D00E5456005D219D20922301A3F20183C75E7
:10131D0033FF753413753559E55730E2200555E522
:10132D0055D3940B4003755501E555C3940B5008E7
:10133D00200C051217198005121745D20C2019041F
:0C134D00D209D219E47885F67557042205
:101073007533FF753413753559E5456006D219D2BA
:101083000980543018077F011215C7804A202B02AC
:10109300C21920191EE555700375550AC20C301A82
:1010A3000BE55730E231C21AE4F55722D21A121770
:1010B3001980240555E555D3940B4003755501E577
:1010C30055C3940B5008200C0512171980051217ED
:0B10D30045D20CE47885F67557042226
:1013A4000554301A1020180DE554B40108D219D28E
:1013B4000975570422E554D39401402EE4F554C230
:1013C40019B218C20C20180FE55730E20F75550AF0
:1013D400D21A1217198005E4F555C21A7533FF7530
:0B13E40034137535597F011215C72224
:10163D00201812301A0F7557041216CA7533FF751C
:06164D003413753559222B
:06146100013B00013A000E
:1015AC00E5406016B40108753803E4F5398008E5A8
:0B15BC004014F53875391175322022FB
:10126D00E4FF1216A47533FF7534157535AC2027C0
:10127D003FE55720E504E5407033C2260540E540C3
:10128D00D39407400CE4F540F53CF53DF53EF5579C
:10129D0022E540B40108753D1EE4F53E8008E540A9
:1012AD0014F53EE4F53DE4F53CF53FD226755720A7
:0112BD00220E
:1014DC0030262D053FE53FD394634024E4F53FFFD0
:1014EC00743C2FF8E6700B0FBF03F5C22EC226F525
:1014FC00402216EF146006147006753D3B753C3B9C
:01150C0022BC
:10002E00201A1CE5567018E5587014302703302638
:10003E000BC226E4F53CF53DF53EF540D22722C233
:02004E00272267
:0314670001580128
:0F170A00E558600A75380DC374099558F53922F2
:10150D00E4FF1216A47533FF75341775350AE557C8
:10151D0020E604E55870140558E558D394084003A7
:0F152D00755801E558B40803121653755740223C
:10167C006F033D3B537A7E237F7B775E6C1F7C74BC
:04168C0000564C6751
:0A1752007538107539107532102239
:10120D00E536705B753602F508F509F50A121752C9
:10121D00300F03202E11E4F5577537807533FF75A8
:10122D0034177535528020AA34A93512050A2009C4
:10123D0013201010E53890167C93F508853209E5DA
:10124D003993F50A75378A302F09302E067509FF47
:0F125D0075378A85370B7B007A0079081212BE2D
:01126C00225F
:1007E7002011030209AAC211C2AF785DE51C26F6E3
:1007F70018E51B36F6D2AF1806E6C3940550030278
:1008070009AAE4F608E6FE08E6FF7C007D05120467
:1008170087785AE625E0245EF8A60608A607E47856
:100827005CF608F6785A06E6D3940950030209AA3B
:10083700E4F6FFEF04FEEEC3940A5040EE25E024F1
:100847005FF9EF25E0245EF8E6FC08E6FDD397ECB8
:10085700199740258C158D16EE25E0245EF8E6FCE9
:1008670008E6FDEF25E0245EF8A60408A605EE25B8
:10087700E0245EF8A61508A6160E80BA0FBF09B3C6
:10088700E4F515F5167F01EF25E0245EF8E6FC0890
:10089700E62516F516EC3515F5150FBF09E9E5162A
:1008A700AE157803CEC313CE13D8F9F5168E15857A
:1008B7001546F547C39401E5159400500DE4F5146A
:1008C700F51375128075113F8010AC15AD16E41243
:1008D700039E8F148E138D128C11AB14AA13A912B9
:1008E700A811E4FFFE7D807C44120091E4FBFA79B5
:1008F700907841120186AB14AA13A912A81112020B
:100907008F8F148E138D128C11E4FBFA794878427D
:1009170012028F120B64E4FBFA7995784312018671
:100927007B007A6079797845120095A804A905AA11
:1009370006AB077F007E607D797C4512028FE4FB62
:10094700FA799578431201867B007A80798878C393
:100957001200958F148E138D128C118F448E438D38
:10096700428C41E4FFFEFDFCAB44AA43A942A841E7
:1009770012032C500BE4F544F543F542F541802171
:10098700E4FFFE7DDC7C42AB44AA43A942A84112A6
:10099700032C600D400BE4F544F5437542DC7541CB
:0309A70042D23009
:0109AA00222A
:1015C700200E09D20BE47887F6788AF6D20EEF78E8
:0915D700866003760222760922E7
:1016CA00200A0BD210E47889F67884F6D208D20A76
:0116DA0022ED
:1016A400C208EF64026004C219C209EF6004C20EEA
:0316B400C20B2244
:100FF900300D76C20D301920788206E6D394094067
:101009001DE4F6788506E6D394084008E4F6C2099B
:10101900C219800AB2098006C209E47882F6202F33
:1010290003300F15201412051EE51ED394C8400C79
:10103900E4F51EC20FC22F8003E4F51E300A2830E2
:101049000814788906E6D39409401EE4F6788406E4
:10105900E6D39405400EE47889F67884F6C20AC28C
:0910690008B21B22B21022C210D1
:01107200225B
:03146A0001500628
:0F171900D21ED21CD21F755003E4F54FF551229A
:0D174500C21CC21FE4F54FF551755006227D
:1009AB001207E730280A302E07C290C21DC21E2242
:1009BB00302E07301A04E545600FC2B0C21CC21EB0
:1009CB00301D03020B2FC29022E5559015F893FCB6
:1009DB00E41203A38F108E0F8D0E8C0DE4FFFE7DA2
:1009EB00707C42AB10AA0FA90EA80D12032C400D60
:1009FB00E4F510F50F750E70750D428030E4FFFEB7
:100A0B007DA07C41AB10AA0FA90EA80D12032C6080
:100A1B0002501AAF10AE0FAD0EAC0DE4FBFA79C05D
:100A2B00783F1200958F108E0F8D0E8C0DE4FFFE0C
:100A3B007D807C3FAB44AA43A942A8411200958F0D
:100A4B000C8E0B8D0A8C09AB10AA0FA90EA80D12D8
:100A5B00032C402E201C07D21ED21C755006301FB3
:100A6B001EC21FE54F2403F508D395504011E550E6
:100A7B0024FDF508D394065003750806850850022B
:100A8B000B14E4FFFE7D807CBFAB44AA43A942A8B4
:100A9B00411200958F0C8E0B8D0A8C09AB10AA0F8F
:100AAB00A90EA80D12032C60025014301C1C201F21
:100ABB0019C21CE550D394035010755006800B30AF
:100ACB001C05201F05804775500C301241C21205C2
:100ADB0051E551D3943B4036E4F551054FE54F2496
:100AEB0003F508C395504026D21FD21ED21CE54FEA
:100AFB009550401AE5502403F508C39467400375DD
:100B0B000867850850C21CC21FE4F54FF551301C15
:100B1B000A201E02D2B0D290D21D22C2B0201D02DA
:040B2B00C290C21E94
:010B2F0022A3
:06177800C228E4F548223E
:03000300021610D2
:10161000C0E0C0D0C2890548E548D3945040037566
:07162000485AD0D0D0E0329F
:1013EF0030303EE4FFFE7D707C42AB44AA43A942FD
:1013FF00A84112032C4002D229302804754503223C
:10140F0030290475450122D3E54794D3E54694036B
:10141F00500BC3E547942BE54694005004754502E5
:05142F0022E4F5452256
:0E1728007F05AE071FEE60060000000080F493
:011736002290
:0A175C00D283121728D29202172838
:02156600AD07CF
:10156800C283121728E4FCC292ED30E004D29680C0
:1015780002C296EDC313FD121728D2921217280C37
:03158800BC08E4B8
:01158B00223D
:1012BE001217287F02121566D2831217287F40124A
:1012CE001566D2831217287FC2121566121728E4EC
:1012DE00F50C12046EFF121566E4FF12156674010A
:1012EE0029F9E43AFA050CE50CC3940340E4D283E1
:0F12FE0012172812046EFF121566D283021728EA
:100EB000758E10E5A130E30653A1F7120006121655
:100EC000DB758008D294E5D3541D4415F5D3E5D2E3
:100ED00054EA44E2F5D243D51053D4EF539030C2D4
:100EE0008353D3F743D208E5D554384408F5D5E504
:100EF000D454F744C7F5D4C295C2B0C2B153D5DFBC
:100F000043D420E5DB54FE4402F5DBE5DA54FD442E
:100F100001F5DA75D90143A82A758911D288758C33
:100F2000FF758A60758DFF758BBE75C8B175CDFA7A
:100F300075CCCB75CBFA75CACB12176FE4FF1217BD
:100F400066D28AD2AA53A9FB43B90443A90253B972
:0F0F5000FD7533FF753417753552D28ED2AF222F
:101690000A050202000000211A12120001020403CE
:0416A000050607072D
:03146D0001590022
:1016B700C2AFC281C297E47874F6C22178807605FA
:0316C700D2AF227D
:10165300C2AFC295C285C286E47877F6C222787299
:051663007605D2AF2264
:03002B00020510BB
:10051000C0E0C0F0C083C082C0D075D000C000C0B1
:1005200001C002C003C004C005C006C007C2C605A2
:1005300059E559D3940950030206727559001214F3
:1005400071E5496035754900E5AC30E115D213E538
:100550004AC4F854F0C8E54BC4540F48F51DE4FFF5
:100560008015D211E54BAE4A7802CEC313CE13D814
:10057000F9F51C8E1B7F0212176630B02220281F4F
:10058000D2A8788806E6D39463401F7600E548D366
:1005900094284007C228754800800FD228800BC2DB
:1005A000A8C28975480078887600E536600215365D
:1005B000900016E004F0E0D394634017E4F0D21208
:1005C000300C10900015E004F0E0D3943B4004E4BC
:1005D000F0C20C201C23301D20900014E004F0E039
:1005E000D39463401DE4F0900018E004F0E0D3944D
:1005F00007400FE4F0C21D8009900014E4F0900061
:1006000018F0309021301E1E900013E004F0D394B7
:1006100063401CE4F0900017E004F0D39404400F12
:10062000E4F0C21E8009900013E4F0900017F07807
:100630008306E6D3940440377600D20DE55260027B
:100640001552300E2A7887067987E7D37886964048
:100650001E78877600788A06E6D3940B40087600E9
:10066000C20EC20B8009200B04D20B8002C20B12F7
:1006700014DC202E0BC291C281C297C2870207C62A
:10068000E5566075D29164086035787306E6D394B8
:1006900009401E7600E55690169B93F520A2009225
:1006A00081A2019297A2029287901690E493787BA0
:1006B000F6787BE6FF640A6048EF603F1680429060
:1006C0001697E493FF787606E6D39F4034760020B1
:1006D000210D7880E606D394C74026D22180227867
:1006E00080E6D394054003168017C221787406E68D
:1006F000D39406400C76008008C291C281C297C292
:1007000087E558701AE55660030207A9E5586003AB
:100710000207A9201A030207A93018030207A9E556
:10072000586408604A787506E6D394094033760029
:10073000E5567011E558700D301A0A201807D29549
:100740009016928018E55890169B93F520A200927F
:1007500086A2019285A2029295901690E493787FEA
:10076000F6787FE6FF640A6046EF603D16804090B1
:100770001697E493FF787806E6D39F403276002000
:10078000220D7872E606D394C74024D222802078C6
:1007900072E6D394054003168015C222787706E6E8
:1007A000D39406400A76008006C295C285C2863080
:1007B0000B11E558701620951320851020860DD258
:1007C000858009300E06C295C285C286D007D00644
:1007D000D005D004D003D002D001D000D0D0D08238
:0707E000D083D0F0D0E0321D
:03001B00020DFAD9
:100DFA00C0E0C083C082C0D075D000C000758DFF2E
:100E0A00758BBE202E03020EA5E5566408703D7848
:100E1A007A06E6D394CD401976007874E690169C4B
:100E2A0093F520A2009281A2019297A2029287D200
:100E3A002330231E787906E6D37880964014787991
:100E4A007600C223C297C281C2878006C2217880F7
:100E5A007600E5586408703D787E06E6D394CD4066
:100E6A001976007877E690169C93F520A200928670
:100E7A00A2019285A2029295D22030201E787D0688
:100E8A00E6D37872964014787D7600C220C295C265
:100E9A0085C2868006C22278727600D000D0D0D071
:060EAA0082D083D0E0328B
:10008E0002040CE86480F8E933E83360110460F090
:10009E00ED33EC337009E8FCE9FDEAFEEBFF2204D8
:1000AE0060DED3EB9FEA9EE99DE8C2E78CF0C2F7D3
:1000BE0095F0400CE8CCF8E9CDF9EACEFAEBCFFB9F
:1000CE001203D785D0F05804700320D5B3E804701E
:1000DE00075002B2D502041692D5EC0460F7E4CCB8
:1000EE00C0E0C398F8603B94186008400DD0E0FB68
:1000FE000203EEE4FBFAC9FC8028E830E406E4C90A
:10010E00FBE4CAFCE830E305E4C9CACBFCE85407BB
:10011E006010F8C3E913F9EA13FAEB13FBEC13FCC6
:10012E00D8F130F52FC3E49CFCEF9BFFEE9AFEED69
:10013E0099FDD0E0FBEF4E4D4C701222DB03020412
:10014E0013EC2CFCEF33FFEE33FEED33FDED30E719
:10015E00EB0203EEEF2BFFEE3AFEED39FDD0E0FBA6
:10016E0050130BBB0003020416ED13FDEE13FEEF4E
:08017E0013FFEC13FC0203EE79
:10018600EC4D6011E8497017ED33EC3304600DE473
:10019600FCFFFEFD22E933E8330470F802040C127A
:1001A60003D758046009E4CC24815006285009027C
:1001B6000416284003020413C0E0EB4A7044B980D9
:1001C60006D0E0FB020402EF4E701CBD8008EBFF78
:1001D600EAFEE9FD80EBE98DF0A4FEE5F002026F90
:1001E600E9CDF9EAFEEBFFEF89F0A4FCE5F0CE8954
:1001F600F0A42EFFE435F0CD89F0A42DFEE435F011
:100206008067EF4E7005BD80D780C3EF8BF0A4AC3E
:10021600F0EE8BF0A42CFCE435F0F8EF8AF0A42C79
:10022600E5F038FCE433CB8DF0A42CFCE5F03BF88C
:10023600EE8AF0A42CFCE5F038F8E433CF89F0A47C
:100246002CFCE5F038CF3400CE89F0A42FFFE5F082
:100256003EFEE433C98DF0A42EFEE5F039CD8AF0DA
:10026600A42FFFE5F03EFEE43DFD33D0E0FB500752
:100276000BBB000F020416EC2CFCEF33FFEE33FE33
:06028600ED33FD0203EE62
:10028C00020416EC5D046005E85904700302040CCA
:10029C001203D7580460F6EC4860F2EC7004FDFED3
:1002AC00FF22C860DB2481C85009C3986002500645
:1002BC000204139850CAF582E9294B4A7005AB82A7
:1002CC0002040275F0007C1A7880C3EF9BEE9AED65
:1002DC0099400DC3EF9BFFEE9AFEED99FDE842F0BD
:1002EC00DC23ACF0D0E0FFD0E0FED0E0FDAB822010
:1002FC00E7101BEB60BAEC2CFCEF33FFEE33FEED9A
:10030C0033FD0203EEE803F830E705C0F075F000AA
:10031C00EF2FFFEE33FEED33FD40B830E7C280AA7D
:10032C0074F8CC6480CCC86480C8F582046043C384
:10033C00EB9FF5F0EA9E42F0E99D42F0E89C45F017
:10034C0060305018E5825FFFE582F42B5582FB503C
:10035C00210ABA001D09B90019088016E5825BFB59
:10036C00E582F42F5582FF50090EBE00050DBD002D
:10037C00010CC3EB9FF5F0EA9E42F0E99D42F0E8D8
:0D038C009C45F06007CC4820E701B3EC224F
:1003990075F020800E75F010800575F0087D007EDF
:1003A900007F003392D530D5031204DCEC334010C2
:1003B900EF33FFEE33FEED33FDEC33FCD5F0ED22E8
:0E03C900E5F0247EA2D513CC92E7CDCEFF2224
:100B30003E9248DA3ECCCCCD3F2AAAAB4000000022
:100B40003F8000003F9837F03FB504F33FD744FCA7
:100B50003E3172173EB172173F0515913EDE5BD9EB
:100B6000D22A8002C22AEDD2E7F8CD33EC330470EA
:100B70000BBD800592D502041602040C40FBD31471
:100B800060F2F5F07C3FEE7A00C39496C8948B40F7
:100B9000230AC89469C8941A401A0AC89468C89469
:100BA0001F40110AC8945AC89425400805F07A00DD
:100BB000CDC2E7CDC0F08C178D188E198F1AEA239D
:100BC00023C0E02440F582E4340BF5831204FA12CA
:100BD0000095ECC0E0EDC0E0EEC0E0EFC0E0120434
:100BE000EAA817A918AA19AB1A120091D0E0FBD0F5
:100BF000E0FAD0E0F9D0E0B2E7F812028F8C178D5E
:100C0000188E198F1A900B307403120421A817A99B
:100C100018AA19AB1A120186D0E0600F244CF58295
:100C2000E4340BF5831204FA1200958C178D188E9C
:100C3000198F1AD0E0C3947FFDE49400FC12039E48
:100C40007B187A727931783F120186A817A918AA01
:100C500019AB1A120095302A0B7BD97A5B79DE78B2
:050C60003E1201862296
:1003D700E9D2E7C933E833F892D5EDD2E7CD33EC6C
:0703E70033FC5002B2D522E5
:1003EE00EC30E7100FBF000C0EBE00080DBD000470
:1003FE000BEB6014A2D5EB13FCED92E7FD2274FF1C
:10040E00FCFDFEFF22E480F8A2D574FF13FC7D8074
:03041E00E480EF88
:10042100C0E0EFFBEEFAEDF9ECF8120186D0E0F551
:10043100F0EFFBEEFAEDF9ECF81204EAA3A3A3A3A3
:10044100E8C0E0E9C0E0EAC0E0EBC0E0C0F01201C2
:10045100861204FAA3A3A3A3120095D0F0D0E0FB67
:0D046100D0E0FAD0E0F9D0E0F8D5F0D422D8
:100F790002158CE493A3F8E493A34003F68001F2ED
:100F890008DFF48029E493A3F85407240CC8C33379
:100F9900C4540F4420C8834004F456800146F6DF48
:100FA900E4800B0102040810204080901434E47E90
:100FB900019360BCA3FF543F30E509541FFEE4933D
:100FC900A360010ECF54C025E060A840B8E493A304
:100FD900FAE493A3F8E493A3C8C582C8CAC583CA2F
:100FE900F0A3C8C582C8CAC583CADFE9DEE780BEE7
:01147000007B
:10046E00BB010689828A83E0225002E722BBFE028C
:09047E00E32289828A83E49322BF
:10048700BC000BBE0029EF8DF084FFADF022E4CC59
:10049700F875F008EF2FFFEE33FEEC33FCEE9DEC22
:1004A700984005FCEE9DFE0FD5F0E9E4CEFD22ED68
:1004B700F8F5F0EE8420D21CFEADF075F008EF2FB2
:1004C700FFED33FD4007985006D5F0F222C398FDA3
:0504D7000FD5F0EA2240
:0E04DC00C3E49FFFE49EFEE49DFDE49CFC2231
:1004EA00E493FC740193FD740293FE740393FF2258
:1004FA00E493F8740193F9740293FA740393FB2258
:06050A008A838982E4737C
:00000001FF
